{
  "contractName": "Ride",
  "abi": [
    {
      "inputs": [
        {
          "internalType": "address",
          "name": "_rider",
          "type": "address"
        },
        {
          "internalType": "string",
          "name": "_source_name",
          "type": "string"
        },
        {
          "internalType": "uint32",
          "name": "_source_long",
          "type": "uint32"
        },
        {
          "internalType": "uint32",
          "name": "_source_lat",
          "type": "uint32"
        },
        {
          "internalType": "string",
          "name": "_dest_name",
          "type": "string"
        },
        {
          "internalType": "uint32",
          "name": "_dest_long",
          "type": "uint32"
        },
        {
          "internalType": "uint32",
          "name": "_dest_lat",
          "type": "uint32"
        }
      ],
      "stateMutability": "nonpayable",
      "type": "constructor"
    },
    {
      "anonymous": false,
      "inputs": [
        {
          "indexed": false,
          "internalType": "address",
          "name": "_driver",
          "type": "address"
        }
      ],
      "name": "BidAccepted",
      "type": "event"
    },
    {
      "anonymous": false,
      "inputs": [
        {
          "indexed": false,
          "internalType": "address",
          "name": "_driver",
          "type": "address"
        },
        {
          "indexed": false,
          "internalType": "uint256",
          "name": "_amount",
          "type": "uint256"
        }
      ],
      "name": "BidReceived",
      "type": "event"
    },
    {
      "anonymous": false,
      "inputs": [],
      "name": "RideCancelled",
      "type": "event"
    },
    {
      "anonymous": false,
      "inputs": [],
      "name": "RideCompleted",
      "type": "event"
    },
    {
      "anonymous": false,
      "inputs": [],
      "name": "RideStarted",
      "type": "event"
    },
    {
      "inputs": [],
      "name": "dest",
      "outputs": [
        {
          "internalType": "string",
          "name": "name",
          "type": "string"
        },
        {
          "internalType": "uint32",
          "name": "long",
          "type": "uint32"
        },
        {
          "internalType": "uint32",
          "name": "lat",
          "type": "uint32"
        }
      ],
      "stateMutability": "view",
      "type": "function"
    },
    {
      "inputs": [],
      "name": "driver",
      "outputs": [
        {
          "internalType": "address",
          "name": "walletAddress",
          "type": "address"
        },
        {
          "internalType": "uint256",
          "name": "bidAmount",
          "type": "uint256"
        }
      ],
      "stateMutability": "view",
      "type": "function"
    },
    {
      "inputs": [],
      "name": "rider",
      "outputs": [
        {
          "internalType": "address",
          "name": "",
          "type": "address"
        }
      ],
      "stateMutability": "view",
      "type": "function"
    },
    {
      "inputs": [],
      "name": "source",
      "outputs": [
        {
          "internalType": "string",
          "name": "name",
          "type": "string"
        },
        {
          "internalType": "uint32",
          "name": "long",
          "type": "uint32"
        },
        {
          "internalType": "uint32",
          "name": "lat",
          "type": "uint32"
        }
      ],
      "stateMutability": "view",
      "type": "function"
    },
    {
      "inputs": [],
      "name": "status",
      "outputs": [
        {
          "internalType": "enum RideStatus",
          "name": "",
          "type": "uint8"
        }
      ],
      "stateMutability": "view",
      "type": "function"
    },
    {
      "inputs": [
        {
          "internalType": "uint256",
          "name": "_amount",
          "type": "uint256"
        }
      ],
      "name": "makeBid",
      "outputs": [],
      "stateMutability": "nonpayable",
      "type": "function"
    },
    {
      "inputs": [
        {
          "internalType": "address",
          "name": "_driver",
          "type": "address"
        }
      ],
      "name": "acceptBid",
      "outputs": [],
      "stateMutability": "nonpayable",
      "type": "function"
    },
    {
      "inputs": [],
      "name": "startRide",
      "outputs": [],
      "stateMutability": "payable",
      "type": "function"
    },
    {
      "inputs": [],
      "name": "endRide",
      "outputs": [],
      "stateMutability": "nonpayable",
      "type": "function"
    },
    {
      "inputs": [],
      "name": "withdraw",
      "outputs": [],
      "stateMutability": "payable",
      "type": "function"
    },
    {
      "inputs": [],
      "name": "cancelRide",
      "outputs": [],
      "stateMutability": "nonpayable",
      "type": "function"
    }
  ],
  "bytecode": "0x60806040523480156200001157600080fd5b5060405162001ae938038062001ae98339818101604052810190620000379190620004d7565b866000806101000a81548173ffffffffffffffffffffffffffffffffffffffff021916908373ffffffffffffffffffffffffffffffffffffffff16021790555060405180606001604052808781526020018663ffffffff1681526020018563ffffffff1681525060016000820151816000019080519060200190620000be929190620001e4565b5060208201518160010160006101000a81548163ffffffff021916908363ffffffff16021790555060408201518160010160046101000a81548163ffffffff021916908363ffffffff16021790555090505060405180606001604052808481526020018363ffffffff1681526020018263ffffffff168152506003600082015181600001908051906020019062000157929190620001e4565b5060208201518160010160006101000a81548163ffffffff021916908363ffffffff16021790555060408201518160010160046101000a81548163ffffffff021916908363ffffffff1602179055509050506000600560006101000a81548160ff02191690836004811115620001d257620001d1620005c8565b5b0217905550505050505050506200065b565b828054620001f29062000626565b90600052602060002090601f01602090048101928262000216576000855562000262565b82601f106200023157805160ff191683800117855562000262565b8280016001018555821562000262579182015b828111156200026157825182559160200191906001019062000244565b5b50905062000271919062000275565b5090565b5b808211156200029057600081600090555060010162000276565b5090565b6000604051905090565b600080fd5b600080fd5b600073ffffffffffffffffffffffffffffffffffffffff82169050919050565b6000620002d582620002a8565b9050919050565b620002e781620002c8565b8114620002f357600080fd5b50565b6000815190506200030781620002dc565b92915050565b600080fd5b600080fd5b6000601f19601f8301169050919050565b7f4e487b7100000000000000000000000000000000000000000000000000000000600052604160045260246000fd5b620003628262000317565b810181811067ffffffffffffffff8211171562000384576200038362000328565b5b80604052505050565b60006200039962000294565b9050620003a7828262000357565b919050565b600067ffffffffffffffff821115620003ca57620003c962000328565b5b620003d58262000317565b9050602081019050919050565b60005b8381101562000402578082015181840152602081019050620003e5565b8381111562000412576000848401525b50505050565b60006200042f6200042984620003ac565b6200038d565b9050828152602081018484840111156200044e576200044d62000312565b5b6200045b848285620003e2565b509392505050565b600082601f8301126200047b576200047a6200030d565b5b81516200048d84826020860162000418565b91505092915050565b600063ffffffff82169050919050565b620004b18162000496565b8114620004bd57600080fd5b50565b600081519050620004d181620004a6565b92915050565b600080600080600080600060e0888a031215620004f957620004f86200029e565b5b6000620005098a828b01620002f6565b975050602088015167ffffffffffffffff8111156200052d576200052c620002a3565b5b6200053b8a828b0162000463565b96505060406200054e8a828b01620004c0565b9550506060620005618a828b01620004c0565b945050608088015167ffffffffffffffff811115620005855762000584620002a3565b5b620005938a828b0162000463565b93505060a0620005a68a828b01620004c0565b92505060c0620005b98a828b01620004c0565b91505092959891949750929550565b7f4e487b7100000000000000000000000000000000000000000000000000000000600052602160045260246000fd5b7f4e487b7100000000000000000000000000000000000000000000000000000000600052602260045260246000fd5b600060028204905060018216806200063f57607f821691505b602082108103620006555762000654620005f7565b5b50919050565b61147e806200066b6000396000f3fe60806040526004361061009c5760003560e01c806367e828bf1161006457806367e828bf146101415780636ba74f171461016e5780636ecc5d62146101975780637ec8a332146101c357806384b366dc146101cd578063ca7d5051146101fa5761009c565b8063041cad6c146100a1578063175b2304146100b8578063200d2ed2146100e15780633ccfd60b1461010c57806353c0a00614610116575b600080fd5b3480156100ad57600080fd5b506100b6610211565b005b3480156100c457600080fd5b506100df60048036038101906100da9190610d4e565b610338565b005b3480156100ed57600080fd5b506100f661058e565b6040516101039190610df2565b60405180910390f35b6101146105a1565b005b34801561012257600080fd5b5061012b6105ef565b6040516101389190610e4e565b60405180910390f35b34801561014d57600080fd5b50610156610613565b60405161016593929190610f21565b60405180910390f35b34801561017a57600080fd5b5061019560048036038101906101909190610f8b565b6106d3565b005b3480156101a357600080fd5b506101ac610955565b6040516101ba929190610fc7565b60405180910390f35b6101cb610987565b005b3480156101d957600080fd5b506101e2610af5565b6040516101f193929190610f21565b60405180910390f35b34801561020657600080fd5b5061020f610bb5565b005b60008054906101000a900473ffffffffffffffffffffffffffffffffffffffff1673ffffffffffffffffffffffffffffffffffffffff163373ffffffffffffffffffffffffffffffffffffffff161461026957600080fd5b6003600481111561027d5761027c610d7b565b5b600560009054906101000a900460ff16600481111561029f5761029e610d7b565b5b146102df576040517f08c379a00000000000000000000000000000000000000000000000000000000081526004016102d690611062565b60405180910390fd5b6004600560006101000a81548160ff0219169083600481111561030557610304610d7b565b5b02179055507ff300b1a2d0e46df6f68ba3f838ce2a078d4d5f24350f9177d0df3310487d358560405160405180910390a1565b6000811161037b576040517f08c379a0000000000000000000000000000000000000000000000000000000008152600401610372906110f4565b60405180910390fd5b6000600481111561038f5761038e610d7b565b5b600560009054906101000a900460ff1660048111156103b1576103b0610d7b565b5b146103f1576040517f08c379a00000000000000000000000000000000000000000000000000000000081526004016103e890611160565b60405180910390fd5b600073ffffffffffffffffffffffffffffffffffffffff16600860003373ffffffffffffffffffffffffffffffffffffffff1673ffffffffffffffffffffffffffffffffffffffff16815260200190815260200160002060000160009054906101000a900473ffffffffffffffffffffffffffffffffffffffff1673ffffffffffffffffffffffffffffffffffffffff16146104c2576040517f08c379a00000000000000000000000000000000000000000000000000000000081526004016104b9906111cc565b60405180910390fd5b6000600860003373ffffffffffffffffffffffffffffffffffffffff1673ffffffffffffffffffffffffffffffffffffffff1681526020019081526020016000209050338160000160006101000a81548173ffffffffffffffffffffffffffffffffffffffff021916908373ffffffffffffffffffffffffffffffffffffffff1602179055508181600101819055507f9a0fa8b9e74b6a70081d4c7ce0cab294a0781d754833b19e1c96e2107f6310ea3383604051610582929190610fc7565b60405180910390a15050565b600560009054906101000a900460ff1681565b3373ffffffffffffffffffffffffffffffffffffffff166108fc6006600101549081150290604051600060405180830381858888f193505050501580156105ec573d6000803e3d6000fd5b50565b60008054906101000a900473ffffffffffffffffffffffffffffffffffffffff1681565b60018060000180546106249061121b565b80601f01602080910402602001604051908101604052809291908181526020018280546106509061121b565b801561069d5780601f106106725761010080835404028352916020019161069d565b820191906000526020600020905b81548152906001019060200180831161068057829003601f168201915b5050505050908060010160009054906101000a900463ffffffff16908060010160049054906101000a900463ffffffff16905083565b60008054906101000a900473ffffffffffffffffffffffffffffffffffffffff1673ffffffffffffffffffffffffffffffffffffffff163373ffffffffffffffffffffffffffffffffffffffff161461072b57600080fd5b6000600481111561073f5761073e610d7b565b5b600560009054906101000a900460ff16600481111561076157610760610d7b565b5b1461076b57600080fd5b8073ffffffffffffffffffffffffffffffffffffffff16600860008373ffffffffffffffffffffffffffffffffffffffff1673ffffffffffffffffffffffffffffffffffffffff16815260200190815260200160002060000160009054906101000a900473ffffffffffffffffffffffffffffffffffffffff1673ffffffffffffffffffffffffffffffffffffffff161461083b576040517f08c379a000000000000000000000000000000000000000000000000000000000815260040161083290611298565b60405180910390fd5b600860008273ffffffffffffffffffffffffffffffffffffffff1673ffffffffffffffffffffffffffffffffffffffff16815260200190815260200160002060066000820160009054906101000a900473ffffffffffffffffffffffffffffffffffffffff168160000160006101000a81548173ffffffffffffffffffffffffffffffffffffffff021916908373ffffffffffffffffffffffffffffffffffffffff160217905550600182015481600101559050506001600560006101000a81548160ff0219169083600481111561091657610915610d7b565b5b02179055507f4da50e135eaa57c0aaa5cd0b51751dc239c9244e0740c5d3e9b2572addcf1aa68160405161094a9190610e4e565b60405180910390a150565b60068060000160009054906101000a900473ffffffffffffffffffffffffffffffffffffffff16908060010154905082565b60008054906101000a900473ffffffffffffffffffffffffffffffffffffffff1673ffffffffffffffffffffffffffffffffffffffff163373ffffffffffffffffffffffffffffffffffffffff16146109df57600080fd5b600160048111156109f3576109f2610d7b565b5b600560009054906101000a900460ff166004811115610a1557610a14610d7b565b5b14610a55576040517f08c379a0000000000000000000000000000000000000000000000000000000008152600401610a4c9061132a565b60405180910390fd5b6006600101543414610a9c576040517f08c379a0000000000000000000000000000000000000000000000000000000008152600401610a93906113bc565b60405180910390fd5b6003600560006101000a81548160ff02191690836004811115610ac257610ac1610d7b565b5b02179055507fe2d38edd681a8a020b54e973ba5e83d6056b3faa94f71811af5ca2b8b1af2e2560405160405180910390a1565b6003806000018054610b069061121b565b80601f0160208091040260200160405190810160405280929190818152602001828054610b329061121b565b8015610b7f5780601f10610b5457610100808354040283529160200191610b7f565b820191906000526020600020905b815481529060010190602001808311610b6257829003601f168201915b5050505050908060010160009054906101000a900463ffffffff16908060010160049054906101000a900463ffffffff16905083565b60008054906101000a900473ffffffffffffffffffffffffffffffffffffffff1673ffffffffffffffffffffffffffffffffffffffff163373ffffffffffffffffffffffffffffffffffffffff1614610c0d57600080fd5b60016004811115610c2157610c20610d7b565b5b600560009054906101000a900460ff166004811115610c4357610c42610d7b565b5b14610c83576040517f08c379a0000000000000000000000000000000000000000000000000000000008152600401610c7a90611428565b60405180910390fd5b6002600560006101000a81548160ff02191690836004811115610ca957610ca8610d7b565b5b02179055507f4f5f5ebda114ed240e7ef4c0db74e0a1e00c6787a1694d6bfb31f7ac55a90b9960405160405180910390a160008054906101000a900473ffffffffffffffffffffffffffffffffffffffff1673ffffffffffffffffffffffffffffffffffffffff16ff5b600080fd5b6000819050919050565b610d2b81610d18565b8114610d3657600080fd5b50565b600081359050610d4881610d22565b92915050565b600060208284031215610d6457610d63610d13565b5b6000610d7284828501610d39565b91505092915050565b7f4e487b7100000000000000000000000000000000000000000000000000000000600052602160045260246000fd5b60058110610dbb57610dba610d7b565b5b50565b6000819050610dcc82610daa565b919050565b6000610ddc82610dbe565b9050919050565b610dec81610dd1565b82525050565b6000602082019050610e076000830184610de3565b92915050565b600073ffffffffffffffffffffffffffffffffffffffff82169050919050565b6000610e3882610e0d565b9050919050565b610e4881610e2d565b82525050565b6000602082019050610e636000830184610e3f565b92915050565b600081519050919050565b600082825260208201905092915050565b60005b83811015610ea3578082015181840152602081019050610e88565b83811115610eb2576000848401525b50505050565b6000601f19601f8301169050919050565b6000610ed482610e69565b610ede8185610e74565b9350610eee818560208601610e85565b610ef781610eb8565b840191505092915050565b600063ffffffff82169050919050565b610f1b81610f02565b82525050565b60006060820190508181036000830152610f3b8186610ec9565b9050610f4a6020830185610f12565b610f576040830184610f12565b949350505050565b610f6881610e2d565b8114610f7357600080fd5b50565b600081359050610f8581610f5f565b92915050565b600060208284031215610fa157610fa0610d13565b5b6000610faf84828501610f76565b91505092915050565b610fc181610d18565b82525050565b6000604082019050610fdc6000830185610e3f565b610fe96020830184610fb8565b9392505050565b7f52696465206d757374206265206f6e676f696e67206265666f726520656e646960008201527f6e67000000000000000000000000000000000000000000000000000000000000602082015250565b600061104c602283610e74565b915061105782610ff0565b604082019050919050565b6000602082019050818103600083015261107b8161103f565b9050919050565b7f42696420616d6f756e74206d7573742062652067726561746572207468616e2060008201527f7a65726f00000000000000000000000000000000000000000000000000000000602082015250565b60006110de602483610e74565b91506110e982611082565b604082019050919050565b6000602082019050818103600083015261110d816110d1565b9050919050565b7f52696465206973206e6f7420696e207265717565737465642073746174650000600082015250565b600061114a601e83610e74565b915061115582611114565b602082019050919050565b600060208201905081810360008301526111798161113d565b9050919050565b7f44726976657220616c7265616479206861732061206269640000000000000000600082015250565b60006111b6601883610e74565b91506111c182611180565b602082019050919050565b600060208201905081810360008301526111e5816111a9565b9050919050565b7f4e487b7100000000000000000000000000000000000000000000000000000000600052602260045260246000fd5b6000600282049050600182168061123357607f821691505b602082108103611246576112456111ec565b5b50919050565b7f57726f6e67204472697665722100000000000000000000000000000000000000600082015250565b6000611282600d83610e74565b915061128d8261124c565b602082019050919050565b600060208201905081810360008301526112b181611275565b9050919050565b7f52696465206d757374206265206163636570746564206265666f72652073746160008201527f7274696e67000000000000000000000000000000000000000000000000000000602082015250565b6000611314602583610e74565b915061131f826112b8565b604082019050919050565b6000602082019050818103600083015261134381611307565b9050919050565b7f5269646520616d6f756e74206d757374206d617463682062696420616d6f756e60008201527f7400000000000000000000000000000000000000000000000000000000000000602082015250565b60006113a6602183610e74565b91506113b18261134a565b604082019050919050565b600060208201905081810360008301526113d581611399565b9050919050565b7f52696465206d75737420626520696e2061636365707465642073746174650000600082015250565b6000611412601e83610e74565b915061141d826113dc565b602082019050919050565b6000602082019050818103600083015261144181611405565b905091905056fea2646970667358221220cdf3d6cbdf48af568215cbccfab17645f34b93e8cc2f75aa3822ae6931a4d77464736f6c634300080d0033",
  "immutableReferences": {},
  "source": "// SPDX-License-Identifier: MIT\npragma solidity >=0.6.0 <0.9.0;\n\nstruct Location {\n    string name;\n    uint32 long;\n    uint32 lat;\n}\n\nstruct Driver {\n    address walletAddress;\n    uint256 bidAmount;\n}\n\nenum RideStatus {\n    REQUESTED,\n    ACCEPTED,\n    REJECTED,\n    ONGOING,\n    COMPLETED\n}\n\ncontract DTaxi {\n    address public owner;\n\n    constructor() {\n        owner = msg.sender;\n    }\n\n    event RideRequested(\n        address _rider,\n        string _source_name,\n        uint32 _source_long,\n        uint32 _source_lat,\n        string _dest_name,\n        uint32 _dest_long,\n        uint32 _dest_lat\n    );\n\n    function requestRide(\n        string calldata _source_name,\n        uint32 _source_long,\n        uint32 _source_lat,\n        string calldata _dest_name,\n        uint32 _dest_long,\n        uint32 _dest_lat\n    ) public {\n        require(\n            _source_long != _dest_long || _source_lat != _dest_lat,\n            \"Source and destination cannot be the same\"\n        );\n\n        Ride ride = new Ride(\n            msg.sender,\n            _source_name,\n            _source_long,\n            _source_lat,\n            _dest_name,\n            _dest_long,\n            _dest_lat\n        );\n\n        emit RideRequested(\n            address(ride),\n            _source_name,\n            _source_long,\n            _source_lat,\n            _dest_name,\n            _dest_long,\n            _dest_lat\n        );\n    }\n}\n\ncontract Ride {\n    address public rider;\n    Location public source;\n    Location public dest;\n    RideStatus public status;\n    Driver public driver;\n\n    mapping(address => Driver) drivers;\n\n    event BidReceived(address _driver, uint256 _amount);\n    event BidAccepted(address _driver);\n    event RideStarted();\n    event RideCompleted();\n    event RideCancelled();\n\n    constructor(\n        address _rider,\n        string memory _source_name,\n        uint32 _source_long,\n        uint32 _source_lat,\n        string memory _dest_name,\n        uint32 _dest_long,\n        uint32 _dest_lat\n    ) {\n        rider = _rider;\n\n        source = Location(_source_name, _source_long, _source_lat);\n        dest = Location(_dest_name, _dest_long, _dest_lat);\n\n        status = RideStatus.REQUESTED;\n    }\n\n    function makeBid(uint256 _amount) public {\n        // require(msg.sender != rider, \"Rider can't be driver\");\n        require(_amount > 0, \"Bid amount must be greater than zero\");\n        require(\n            status == RideStatus.REQUESTED,\n            \"Ride is not in requested state\"\n        );\n        require(\n            drivers[msg.sender].walletAddress == address(0),\n            \"Driver already has a bid\"\n        );\n\n        Driver storage d = drivers[msg.sender];\n        d.walletAddress = msg.sender;\n        d.bidAmount = _amount;\n\n        emit BidReceived(msg.sender, _amount);\n    }\n\n    function acceptBid(address _driver) public {\n        require(msg.sender == rider);\n        require(status == RideStatus.REQUESTED);\n        require(drivers[_driver].walletAddress == _driver, \"Wrong Driver!\");\n\n        driver = drivers[_driver];\n        status = RideStatus.ACCEPTED;\n\n        emit BidAccepted(_driver);\n    }\n\n    function startRide() public payable {\n        require(msg.sender == rider);\n        require(\n            status == RideStatus.ACCEPTED,\n            \"Ride must be accepted before starting\"\n        );\n        require(\n            msg.value == driver.bidAmount,\n            \"Ride amount must match bid amount\"\n        );\n\n        status = RideStatus.ONGOING;\n        emit RideStarted();\n    }\n\n    function endRide() public {\n        require(msg.sender == rider);\n        require(\n            status == RideStatus.ONGOING,\n            \"Ride must be ongoing before ending\"\n        );\n\n        status = RideStatus.COMPLETED;\n        emit RideCompleted();\n    }\n\n    function withdraw() public payable {\n    //    require(msg.sender == driver.walletAddress);\n        // require(\n        //     status == RideStatus.COMPLETED,\n        //     \"Ride must be completed before withdrawing\"\n        // );\n\n        payable(msg.sender).transfer(driver.bidAmount);\n    }\n\n    function cancelRide() public {\n        require(msg.sender == rider);\n        require(\n            status == RideStatus.ACCEPTED,\n            \"Ride must be in accepted state\"\n        );\n\n        status = RideStatus.REJECTED;\n        emit RideCancelled();\n        selfdestruct(payable(rider));\n    }\n}\n",
  "sourcePath": "/home/anuradha/GroupProject/DTaxi/contracts/Main.sol",
  "compiler": {
    "name": "solc",
    "version": "0.8.13+commit.abaa5c0e.Emscripten.clang"
  },
  "schemaVersion": "3.4.7",
  "updatedAt": "2022-05-04T15:32:36.462Z",
  "devdoc": {
    "kind": "dev",
    "methods": {},
    "version": 1
  },
  "userdoc": {
    "kind": "user",
    "methods": {},
    "version": 1
  }
}