{
  "contractName": "Ride",
  "abi": [
    {
      "inputs": [
        {
          "internalType": "address",
          "name": "_rider",
          "type": "address"
        },
        {
          "internalType": "uint32",
          "name": "_source_long",
          "type": "uint32"
        },
        {
          "internalType": "uint32",
          "name": "_source_lat",
          "type": "uint32"
        },
        {
          "internalType": "uint32",
          "name": "_dest_long",
          "type": "uint32"
        },
        {
          "internalType": "uint32",
          "name": "_dest_lat",
          "type": "uint32"
        }
      ],
      "stateMutability": "nonpayable",
      "type": "constructor"
    },
    {
      "anonymous": false,
      "inputs": [
        {
          "indexed": false,
          "internalType": "address",
          "name": "_driver",
          "type": "address"
        }
      ],
      "name": "BidAccepted",
      "type": "event"
    },
    {
      "anonymous": false,
      "inputs": [
        {
          "indexed": false,
          "internalType": "address",
          "name": "_driver",
          "type": "address"
        },
        {
          "indexed": false,
          "internalType": "uint256",
          "name": "_amount",
          "type": "uint256"
        }
      ],
      "name": "BidReceived",
      "type": "event"
    },
    {
      "inputs": [],
      "name": "dest",
      "outputs": [
        {
          "internalType": "uint32",
          "name": "long",
          "type": "uint32"
        },
        {
          "internalType": "uint32",
          "name": "lat",
          "type": "uint32"
        }
      ],
      "stateMutability": "view",
      "type": "function"
    },
    {
      "inputs": [],
      "name": "source",
      "outputs": [
        {
          "internalType": "uint32",
          "name": "long",
          "type": "uint32"
        },
        {
          "internalType": "uint32",
          "name": "lat",
          "type": "uint32"
        }
      ],
      "stateMutability": "view",
      "type": "function"
    },
    {
      "inputs": [
        {
          "internalType": "uint256",
          "name": "_amount",
          "type": "uint256"
        }
      ],
      "name": "makeBid",
      "outputs": [],
      "stateMutability": "nonpayable",
      "type": "function"
    },
    {
      "inputs": [
        {
          "internalType": "address",
          "name": "_driver",
          "type": "address"
        }
      ],
      "name": "acceptBid",
      "outputs": [],
      "stateMutability": "nonpayable",
      "type": "function"
    },
    {
      "inputs": [],
      "name": "startRide",
      "outputs": [],
      "stateMutability": "nonpayable",
      "type": "function"
    },
    {
      "inputs": [],
      "name": "endRide",
      "outputs": [],
      "stateMutability": "nonpayable",
      "type": "function"
    }
  ],
  "bytecode": "0x60806040523480156200001157600080fd5b5060405162000b4d38038062000b4d833981810160405281019062000037919062000243565b846000806101000a81548173ffffffffffffffffffffffffffffffffffffffff021916908373ffffffffffffffffffffffffffffffffffffffff16021790555060405180604001604052808563ffffffff1681526020018463ffffffff16815250600160008201518160000160006101000a81548163ffffffff021916908363ffffffff16021790555060208201518160000160046101000a81548163ffffffff021916908363ffffffff16021790555090505060405180604001604052808363ffffffff1681526020018263ffffffff16815250600260008201518160000160006101000a81548163ffffffff021916908363ffffffff16021790555060208201518160000160046101000a81548163ffffffff021916908363ffffffff1602179055509050506000600360006101000a81548160ff02191690836003811115620001885762000187620002cb565b5b02179055505050505050620002fa565b600080fd5b600073ffffffffffffffffffffffffffffffffffffffff82169050919050565b6000620001ca826200019d565b9050919050565b620001dc81620001bd565b8114620001e857600080fd5b50565b600081519050620001fc81620001d1565b92915050565b600063ffffffff82169050919050565b6200021d8162000202565b81146200022957600080fd5b50565b6000815190506200023d8162000212565b92915050565b600080600080600060a0868803121562000262576200026162000198565b5b60006200027288828901620001eb565b955050602062000285888289016200022c565b945050604062000298888289016200022c565b9350506060620002ab888289016200022c565b9250506080620002be888289016200022c565b9150509295509295909350565b7f4e487b7100000000000000000000000000000000000000000000000000000000600052602160045260246000fd5b610843806200030a6000396000f3fe608060405234801561001057600080fd5b50600436106100625760003560e01c8063041cad6c14610067578063175b23041461007157806367e828bf1461008d5780636ba74f17146100ac5780637ec8a332146100c857806384b366dc146100d2575b600080fd5b61006f6100f1565b005b61008b60048036038101906100869190610593565b6100f3565b005b6100956102b0565b6040516100a39291906105df565b60405180910390f35b6100c660048036038101906100c19190610666565b6102e2565b005b6100d0610524565b005b6100da610526565b6040516100e89291906105df565b60405180910390f35b565b60008054906101000a900473ffffffffffffffffffffffffffffffffffffffff1673ffffffffffffffffffffffffffffffffffffffff163373ffffffffffffffffffffffffffffffffffffffff1603610181576040517f08c379a0000000000000000000000000000000000000000000000000000000008152600401610178906106f0565b60405180910390fd5b6000600660003373ffffffffffffffffffffffffffffffffffffffff1673ffffffffffffffffffffffffffffffffffffffff1681526020019081526020016000209050338160000160006101000a81548173ffffffffffffffffffffffffffffffffffffffff021916908373ffffffffffffffffffffffffffffffffffffffff1602179055508181600101819055506007339080600181540180825580915050600190039060005260206000200160009091909190916101000a81548173ffffffffffffffffffffffffffffffffffffffff021916908373ffffffffffffffffffffffffffffffffffffffff1602179055507f9a0fa8b9e74b6a70081d4c7ce0cab294a0781d754833b19e1c96e2107f6310ea33836040516102a492919061072e565b60405180910390a15050565b60018060000160009054906101000a900463ffffffff16908060000160049054906101000a900463ffffffff16905082565b60008054906101000a900473ffffffffffffffffffffffffffffffffffffffff1673ffffffffffffffffffffffffffffffffffffffff163373ffffffffffffffffffffffffffffffffffffffff161461033a57600080fd5b8073ffffffffffffffffffffffffffffffffffffffff16600660008373ffffffffffffffffffffffffffffffffffffffff1673ffffffffffffffffffffffffffffffffffffffff16815260200190815260200160002060000160009054906101000a900473ffffffffffffffffffffffffffffffffffffffff1673ffffffffffffffffffffffffffffffffffffffff161461040a576040517f08c379a0000000000000000000000000000000000000000000000000000000008152600401610401906107a3565b60405180910390fd5b600660008273ffffffffffffffffffffffffffffffffffffffff1673ffffffffffffffffffffffffffffffffffffffff16815260200190815260200160002060046000820160009054906101000a900473ffffffffffffffffffffffffffffffffffffffff168160000160006101000a81548173ffffffffffffffffffffffffffffffffffffffff021916908373ffffffffffffffffffffffffffffffffffffffff160217905550600182015481600101559050506001600360006101000a81548160ff021916908360038111156104e5576104e46107c3565b5b02179055507f4da50e135eaa57c0aaa5cd0b51751dc239c9244e0740c5d3e9b2572addcf1aa68160405161051991906107f2565b60405180910390a150565b565b60028060000160009054906101000a900463ffffffff16908060000160049054906101000a900463ffffffff16905082565b600080fd5b6000819050919050565b6105708161055d565b811461057b57600080fd5b50565b60008135905061058d81610567565b92915050565b6000602082840312156105a9576105a8610558565b5b60006105b78482850161057e565b91505092915050565b600063ffffffff82169050919050565b6105d9816105c0565b82525050565b60006040820190506105f460008301856105d0565b61060160208301846105d0565b9392505050565b600073ffffffffffffffffffffffffffffffffffffffff82169050919050565b600061063382610608565b9050919050565b61064381610628565b811461064e57600080fd5b50565b6000813590506106608161063a565b92915050565b60006020828403121561067c5761067b610558565b5b600061068a84828501610651565b91505092915050565b600082825260208201905092915050565b7f52696465722063616e2774206265206472697665720000000000000000000000600082015250565b60006106da601583610693565b91506106e5826106a4565b602082019050919050565b60006020820190508181036000830152610709816106cd565b9050919050565b61071981610628565b82525050565b6107288161055d565b82525050565b60006040820190506107436000830185610710565b610750602083018461071f565b9392505050565b7f57726f6e67204472697665722100000000000000000000000000000000000000600082015250565b600061078d600d83610693565b915061079882610757565b602082019050919050565b600060208201905081810360008301526107bc81610780565b9050919050565b7f4e487b7100000000000000000000000000000000000000000000000000000000600052602160045260246000fd5b60006020820190506108076000830184610710565b9291505056fea26469706673582212204103eff0e116e0492c90b355bdf0e46c3c0d3a5361c636e26d453be062b2678064736f6c634300080d0033",
  "immutableReferences": {},
  "source": "// SPDX-License-Identifier: MIT\npragma solidity >=0.6.0 <0.9.0;\n\nstruct Location {\n    uint32 long;\n    uint32 lat;\n}\n\nstruct Driver {\n    address payable walletAddress;\n    uint256 bidAmount;\n}\n\nenum RideStatus {\n    REQUESTED,\n    ACCEPTED,\n    REJECTED,\n    COMPLETED\n}\n\ncontract DTaxi {\n    address public owner;\n\n    constructor() {\n        owner = msg.sender;\n    }\n\n    mapping(address => Ride) public rides;\n\n    event RideRequested(address _rider, uint32 _source_long, uint32 _source_lat, uint32 _dest_long, uint32 _dest_lat);\n\n    function requestRide(uint32 _source_long, uint32 _source_lat, uint32 _dest_long, uint32 _dest_lat) public returns(address) {\n        require(_source_long != _dest_long || _source_lat != _dest_lat, \"Source and destination cannot be the same\");\n\n        Ride ride = new Ride(msg.sender, _source_long, _source_lat, _dest_long, _dest_lat);\n        rides[address(ride)] = ride;\n\n        emit RideRequested(address(ride), _source_long, _source_lat, _dest_long, _dest_lat);\n        return address(ride);\n    }\n}\n\ncontract Ride {\n    address rider;\n    Location public source;\n    Location public dest;\n    RideStatus status;\n    Driver driver;\n\n    mapping(address => Driver) drivers;\n    address[] driverAddresses;\n\n    event BidReceived(address _driver, uint256 _amount);\n    event BidAccepted(address _driver);\n\n    constructor(address _rider, uint32 _source_long, uint32 _source_lat, uint32 _dest_long, uint32 _dest_lat) {\n        rider = _rider;\n\n        source = Location(_source_long, _source_lat);\n        dest = Location(_dest_long, _dest_lat);\n\n        status = RideStatus.REQUESTED;\n    }\n\n    function makeBid(uint256 _amount) public {\n        require(msg.sender != rider, \"Rider can't be driver\");\n\n        Driver storage d = drivers[msg.sender];\n        d.walletAddress = payable(msg.sender);\n        d.bidAmount = _amount;\n        driverAddresses.push(msg.sender);\n\n        emit BidReceived(msg.sender, _amount);\n    }\n\n    function acceptBid(address _driver) public {\n        require(msg.sender == rider);\n        require(drivers[_driver].walletAddress == _driver, \"Wrong Driver!\");\n\n        driver = drivers[_driver];\n        status = RideStatus.ACCEPTED;\n\n        emit BidAccepted(_driver);\n    }\n\n    function startRide() public {}\n\n    function endRide() public {}\n}",
  "sourcePath": "/home/rekhansh/Documents/VSCodeProjects/truffle-app/contracts/Main.sol",
  "compiler": {
    "name": "solc",
    "version": "0.8.13+commit.abaa5c0e.Emscripten.clang"
  },
  "schemaVersion": "3.4.7",
  "updatedAt": "2022-05-01T11:13:16.941Z",
  "devdoc": {
    "kind": "dev",
    "methods": {},
    "version": 1
  },
  "userdoc": {
    "kind": "user",
    "methods": {},
    "version": 1
  }
}